{
  "contractName": "lottery",
  "abi": [
    {
      "inputs": [
        {
          "internalType": "uint256",
          "name": "",
          "type": "uint256"
        }
      ],
      "name": "map_participant",
      "outputs": [
        {
          "internalType": "address",
          "name": "add",
          "type": "address"
        },
        {
          "internalType": "uint256",
          "name": "num_of_tickets",
          "type": "uint256"
        }
      ],
      "stateMutability": "view",
      "type": "function",
      "constant": true
    },
    {
      "inputs": [],
      "name": "num_of_participants",
      "outputs": [
        {
          "internalType": "uint256",
          "name": "",
          "type": "uint256"
        }
      ],
      "stateMutability": "view",
      "type": "function",
      "constant": true
    },
    {
      "inputs": [],
      "name": "winner",
      "outputs": [
        {
          "internalType": "address",
          "name": "",
          "type": "address"
        }
      ],
      "stateMutability": "view",
      "type": "function",
      "constant": true
    },
    {
      "inputs": [
        {
          "internalType": "address",
          "name": "a",
          "type": "address"
        },
        {
          "internalType": "uint256",
          "name": "num",
          "type": "uint256"
        }
      ],
      "name": "buyTickets",
      "outputs": [],
      "stateMutability": "payable",
      "type": "function",
      "payable": true
    },
    {
      "inputs": [
        {
          "internalType": "address",
          "name": "a",
          "type": "address"
        }
      ],
      "name": "findAddress",
      "outputs": [
        {
          "internalType": "uint256",
          "name": "",
          "type": "uint256"
        }
      ],
      "stateMutability": "view",
      "type": "function",
      "constant": true
    },
    {
      "inputs": [],
      "name": "chooseWinner",
      "outputs": [],
      "stateMutability": "payable",
      "type": "function",
      "payable": true
    },
    {
      "inputs": [],
      "name": "getBalance",
      "outputs": [
        {
          "internalType": "uint256",
          "name": "",
          "type": "uint256"
        }
      ],
      "stateMutability": "view",
      "type": "function",
      "constant": true
    }
  ],
  "bytecode": "0x60806040526000805534801561001457600080fd5b50610958806100246000396000f3fe6080604052600436106100705760003560e01c80635d159e741161004e5780635d159e741461010857806388f5776714610146578063cd38aa8714610162578063dfbf53ae1461016c57610070565b80630309aca31461007557806312065fe0146100b257806327019fa4146100dd575b600080fd5b34801561008157600080fd5b5061009c60048036038101906100979190610600565b610197565b6040516100a99190610646565b60405180910390f35b3480156100be57600080fd5b506100c761023a565b6040516100d49190610646565b60405180910390f35b3480156100e957600080fd5b506100f2610242565b6040516100ff9190610646565b60405180910390f35b34801561011457600080fd5b5061012f600480360381019061012a919061068d565b610248565b60405161013d9291906106c9565b60405180910390f35b610160600480360381019061015b91906106f2565b61028c565b005b61016a610434565b005b34801561017857600080fd5b50610181610577565b60405161018e9190610732565b60405180910390f35b600080600090505b600054811161022e578273ffffffffffffffffffffffffffffffffffffffff166001600083815260200190815260200160002060000160009054906101000a900473ffffffffffffffffffffffffffffffffffffffff1673ffffffffffffffffffffffffffffffffffffffff16141561021b5780915050610235565b80806102269061077c565b91505061019f565b506103e790505b919050565b600047905090565b60005481565b60016020528060005260406000206000915090508060000160009054906101000a900473ffffffffffffffffffffffffffffffffffffffff16908060010154905082565b80670de0b6b3a76400006102a091906107c5565b34146102ab57600080fd5b6103e76102b783610197565b141561036c5760405180604001604052808373ffffffffffffffffffffffffffffffffffffffff16815260200182815250600160008054815260200190815260200160002060008201518160000160006101000a81548173ffffffffffffffffffffffffffffffffffffffff021916908373ffffffffffffffffffffffffffffffffffffffff160217905550602082015181600101559050506000808154809291906103629061077c565b9190505550610430565b60405180604001604052808373ffffffffffffffffffffffffffffffffffffffff16815260200182600160006103a187610197565b8152602001908152602001600020600101546103bd919061081f565b815250600160006103cd85610197565b815260200190815260200160002060008201518160000160006101000a81548173ffffffffffffffffffffffffffffffffffffffff021916908373ffffffffffffffffffffffffffffffffffffffff160217905550602082015181600101559050505b5050565b600061043e61023a565b146105755760008054424460405160200161045a929190610896565b6040516020818303038152906040528051906020012060001c61047d91906108f1565b90506001600082815260200190815260200160002060000160009054906101000a900473ffffffffffffffffffffffffffffffffffffffff1673ffffffffffffffffffffffffffffffffffffffff166108fc479081150290604051600060405180830381858888f193505050501580156104fb573d6000803e3d6000fd5b506001600082815260200190815260200160002060000160009054906101000a900473ffffffffffffffffffffffffffffffffffffffff16600260006101000a81548173ffffffffffffffffffffffffffffffffffffffff021916908373ffffffffffffffffffffffffffffffffffffffff160217905550505b565b600260009054906101000a900473ffffffffffffffffffffffffffffffffffffffff1681565b600080fd5b600073ffffffffffffffffffffffffffffffffffffffff82169050919050565b60006105cd826105a2565b9050919050565b6105dd816105c2565b81146105e857600080fd5b50565b6000813590506105fa816105d4565b92915050565b6000602082840312156106165761061561059d565b5b6000610624848285016105eb565b91505092915050565b6000819050919050565b6106408161062d565b82525050565b600060208201905061065b6000830184610637565b92915050565b61066a8161062d565b811461067557600080fd5b50565b60008135905061068781610661565b92915050565b6000602082840312156106a3576106a261059d565b5b60006106b184828501610678565b91505092915050565b6106c3816105c2565b82525050565b60006040820190506106de60008301856106ba565b6106eb6020830184610637565b9392505050565b600080604083850312156107095761070861059d565b5b6000610717858286016105eb565b925050602061072885828601610678565b9150509250929050565b600060208201905061074760008301846106ba565b92915050565b7f4e487b7100000000000000000000000000000000000000000000000000000000600052601160045260246000fd5b60006107878261062d565b91507fffffffffffffffffffffffffffffffffffffffffffffffffffffffffffffffff8214156107ba576107b961074d565b5b600182019050919050565b60006107d08261062d565b91506107db8361062d565b9250817fffffffffffffffffffffffffffffffffffffffffffffffffffffffffffffffff04831182151516156108145761081361074d565b5b828202905092915050565b600061082a8261062d565b91506108358361062d565b9250827fffffffffffffffffffffffffffffffffffffffffffffffffffffffffffffffff0382111561086a5761086961074d565b5b828201905092915050565b6000819050919050565b61089061088b8261062d565b610875565b82525050565b60006108a2828561087f565b6020820191506108b2828461087f565b6020820191508190509392505050565b7f4e487b7100000000000000000000000000000000000000000000000000000000600052601260045260246000fd5b60006108fc8261062d565b91506109078361062d565b925082610917576109166108c2565b5b82820690509291505056fea2646970667358221220e1683135eb7a0debeac4cb9790a634fdcce37d0e213e8a12164a926b74fe25a464736f6c634300080a0033",
  "immutableReferences": {},
  "source": "\r\n// SPDX-License-Identifier: GPL-3.0\r\n\r\npragma solidity >=0.7.0 <0.9.0;\r\n\r\ncontract lottery{\r\n\r\n    struct participants{\r\n        address add;\r\n        uint num_of_tickets;\r\n    }\r\n    uint public num_of_participants =0;\r\n    \r\n    mapping(uint=>participants) public map_participant;\r\naddress public winner;\r\n\r\n    function buyTickets(address a, uint num) external payable {\r\n        require(msg.value == (1 ether)*num);\r\n        if(findAddress(a) == 999){\r\n    map_participant[num_of_participants] = participants(a,num);\r\n    num_of_participants++;\r\n    \r\n        }\r\n        else{\r\n\r\n        map_participant[findAddress(a)] = participants(a, map_participant[findAddress(a)].num_of_tickets +num);\r\n       \r\n        }\r\n    }\r\n\r\n    function findAddress(address a) public view returns(uint){\r\n        for(uint j =0; j<=num_of_participants;j++){\r\n            if(map_participant[j].add == a){\r\n                return j;\r\n            }\r\n        }\r\n        return 999;\r\n    \r\n    }\r\n \r\n   \r\n   function chooseWinner() external payable\r\n{\r\nif(getBalance()!=0){\r\n uint pos = uint(keccak256(abi.encodePacked(block.timestamp,block.difficulty)))%num_of_participants;\r\n payable(map_participant[pos].add).transfer(address(this).balance);\r\n winner = map_participant[pos].add;\r\n}\r\n\r\n}\r\n\r\nfunction getBalance() public view returns(uint){\r\nreturn address(this).balance;\r\n}\r\n\r\n}",
  "sourcePath": "C:\\Users\\shrey\\NODEJS PROJECT\\blockchain-lottery\\contracts\\lottery.sol",
  "compiler": {
    "name": "solc",
    "version": "0.8.10+commit.fc410830.Emscripten.clang"
  },
  "schemaVersion": "3.4.3",
  "updatedAt": "2021-12-20T11:02:03.048Z",
  "networkType": "ethereum",
  "devdoc": {
    "kind": "dev",
    "methods": {},
    "version": 1
  },
  "userdoc": {
    "kind": "user",
    "methods": {},
    "version": 1
  }
}